{
  "contractName": "Voting",
  "abi": [
    {
      "anonymous": false,
      "inputs": [
        {
          "indexed": true,
          "internalType": "address",
          "name": "previousOwner",
          "type": "address"
        },
        {
          "indexed": true,
          "internalType": "address",
          "name": "newOwner",
          "type": "address"
        }
      ],
      "name": "OwnershipTransferred",
      "type": "event"
    },
    {
      "anonymous": false,
      "inputs": [
        {
          "indexed": false,
          "internalType": "uint256",
          "name": "proposalId",
          "type": "uint256"
        }
      ],
      "name": "ProposalRegistered",
      "type": "event"
    },
    {
      "anonymous": false,
      "inputs": [],
      "name": "ProposalsRegistrationEnded",
      "type": "event"
    },
    {
      "anonymous": false,
      "inputs": [],
      "name": "ProposalsRegistrationStarted",
      "type": "event"
    },
    {
      "anonymous": false,
      "inputs": [
        {
          "indexed": false,
          "internalType": "address",
          "name": "voter",
          "type": "address"
        },
        {
          "indexed": false,
          "internalType": "uint256",
          "name": "proposalId",
          "type": "uint256"
        }
      ],
      "name": "Voted",
      "type": "event"
    },
    {
      "anonymous": false,
      "inputs": [
        {
          "indexed": false,
          "internalType": "address",
          "name": "voterAddress",
          "type": "address"
        }
      ],
      "name": "VoterRegistered",
      "type": "event"
    },
    {
      "anonymous": false,
      "inputs": [],
      "name": "VotesTallied",
      "type": "event"
    },
    {
      "anonymous": false,
      "inputs": [],
      "name": "VotingSessionEnded",
      "type": "event"
    },
    {
      "anonymous": false,
      "inputs": [],
      "name": "VotingSessionStarted",
      "type": "event"
    },
    {
      "anonymous": false,
      "inputs": [
        {
          "indexed": false,
          "internalType": "enum Voting.WorkflowStatus",
          "name": "previousStatus",
          "type": "uint8"
        },
        {
          "indexed": false,
          "internalType": "enum Voting.WorkflowStatus",
          "name": "newStatus",
          "type": "uint8"
        }
      ],
      "name": "WorkflowStatusChange",
      "type": "event"
    },
    {
      "inputs": [],
      "name": "owner",
      "outputs": [
        {
          "internalType": "address",
          "name": "",
          "type": "address"
        }
      ],
      "stateMutability": "view",
      "type": "function",
      "constant": true
    },
    {
      "inputs": [
        {
          "internalType": "uint256",
          "name": "",
          "type": "uint256"
        }
      ],
      "name": "proposals",
      "outputs": [
        {
          "internalType": "string",
          "name": "description",
          "type": "string"
        },
        {
          "internalType": "uint256",
          "name": "voteCount",
          "type": "uint256"
        }
      ],
      "stateMutability": "view",
      "type": "function",
      "constant": true
    },
    {
      "inputs": [],
      "name": "renounceOwnership",
      "outputs": [],
      "stateMutability": "nonpayable",
      "type": "function"
    },
    {
      "inputs": [
        {
          "internalType": "address",
          "name": "newOwner",
          "type": "address"
        }
      ],
      "name": "transferOwnership",
      "outputs": [],
      "stateMutability": "nonpayable",
      "type": "function"
    },
    {
      "inputs": [],
      "name": "nextWorkflowStatus",
      "outputs": [],
      "stateMutability": "nonpayable",
      "type": "function"
    },
    {
      "inputs": [],
      "name": "getWorkflowStatus",
      "outputs": [
        {
          "internalType": "enum Voting.WorkflowStatus",
          "name": "",
          "type": "uint8"
        }
      ],
      "stateMutability": "view",
      "type": "function",
      "constant": true
    },
    {
      "inputs": [
        {
          "internalType": "address",
          "name": "_address",
          "type": "address"
        }
      ],
      "name": "registerVoter",
      "outputs": [],
      "stateMutability": "nonpayable",
      "type": "function"
    },
    {
      "inputs": [],
      "name": "getVoterListAddresses",
      "outputs": [
        {
          "internalType": "address[]",
          "name": "",
          "type": "address[]"
        }
      ],
      "stateMutability": "view",
      "type": "function",
      "constant": true
    },
    {
      "inputs": [],
      "name": "getProposalCount",
      "outputs": [
        {
          "internalType": "uint256",
          "name": "",
          "type": "uint256"
        }
      ],
      "stateMutability": "view",
      "type": "function",
      "constant": true
    },
    {
      "inputs": [
        {
          "internalType": "address",
          "name": "_voterAddress",
          "type": "address"
        }
      ],
      "name": "isVoterRegistered",
      "outputs": [
        {
          "internalType": "bool",
          "name": "",
          "type": "bool"
        }
      ],
      "stateMutability": "view",
      "type": "function",
      "constant": true
    },
    {
      "inputs": [
        {
          "internalType": "string",
          "name": "_description",
          "type": "string"
        }
      ],
      "name": "registerProposal",
      "outputs": [],
      "stateMutability": "nonpayable",
      "type": "function"
    },
    {
      "inputs": [
        {
          "internalType": "uint256",
          "name": "_proposalId",
          "type": "uint256"
        }
      ],
      "name": "voteForProposal",
      "outputs": [],
      "stateMutability": "nonpayable",
      "type": "function"
    },
    {
      "inputs": [
        {
          "internalType": "address",
          "name": "_voterAddress",
          "type": "address"
        }
      ],
      "name": "getVoteFromVoter",
      "outputs": [
        {
          "internalType": "uint256",
          "name": "",
          "type": "uint256"
        }
      ],
      "stateMutability": "view",
      "type": "function",
      "constant": true
    },
    {
      "inputs": [],
      "name": "getWinningProposal",
      "outputs": [
        {
          "internalType": "string",
          "name": "",
          "type": "string"
        }
      ],
      "stateMutability": "view",
      "type": "function",
      "constant": true
    }
  ],
  "bytecode": "0x60806040526000600260006101000a81548160ff0219169083600581111561002357fe5b021790555034801561003457600080fd5b50600061004e6100f1640100000000026401000000009004565b9050806000806101000a81548173ffffffffffffffffffffffffffffffffffffffff021916908373ffffffffffffffffffffffffffffffffffffffff1602179055508073ffffffffffffffffffffffffffffffffffffffff16600073ffffffffffffffffffffffffffffffffffffffff167f8be0079c531659141344cd1fd0a4f28419497f9722a3daafe3b4186f6b6457e060405160405180910390a3506100f9565b600033905090565b611d2e806101086000396000f3fe608060405234801561001057600080fd5b5060043610610107576000357c0100000000000000000000000000000000000000000000000000000000900480638da5cb5b116100a9578063c08cc02d11610083578063c08cc02d1461047f578063eb2119db1461049d578063f2fde38b146104f9578063f75d64a61461053d57610107565b80638da5cb5b146103535780639883f8f51461039d578063a5134620146103fc57610107565b806338db6dd3116100e557806338db6dd3146102a35780634ceb6a95146102e7578063715018a61461033f578063754062841461034957610107565b8063013cf08b1461010c578063045c6ce0146101ba5780632f95355b146101e8575b600080fd5b6101386004803603602081101561012257600080fd5b8101908080359060200190929190505050610569565b6040518080602001838152602001828103825284818151815260200191508051906020019080838360005b8381101561017e578082015181840152602081019050610163565b50505050905090810190601f1680156101ab5780820380516001836020036101000a031916815260200191505b50935050505060405180910390f35b6101e6600480360360208110156101d057600080fd5b8101908080359060200190929190505050610632565b005b6102a1600480360360208110156101fe57600080fd5b810190808035906020019064010000000081111561021b57600080fd5b82018360208201111561022d57600080fd5b8035906020019184600183028401116401000000008311171561024f57600080fd5b91908080601f016020809104026020016040519081016040528093929190818152602001838380828437600081840152601f19601f8201169050808301925050505050505091929192905050506108af565b005b6102e5600480360360208110156102b957600080fd5b81019080803573ffffffffffffffffffffffffffffffffffffffff169060200190929190505050610a3e565b005b610329600480360360208110156102fd57600080fd5b81019080803573ffffffffffffffffffffffffffffffffffffffff169060200190929190505050610cab565b6040518082815260200191505060405180910390f35b610347610dd2565b005b610351610f5a565b005b61035b611367565b604051808273ffffffffffffffffffffffffffffffffffffffff1673ffffffffffffffffffffffffffffffffffffffff16815260200191505060405180910390f35b6103a5611390565b6040518080602001828103825283818151815260200191508051906020019060200280838360005b838110156103e85780820151818401526020810190506103cd565b505050509050019250505060405180910390f35b6104046114e7565b6040518080602001828103825283818151815260200191508051906020019080838360005b83811015610444578082015181840152602081019050610429565b50505050905090810190601f1680156104715780820380516001836020036101000a031916815260200191505b509250505060405180910390f35b610487611627565b6040518082815260200191505060405180910390f35b6104df600480360360208110156104b357600080fd5b81019080803573ffffffffffffffffffffffffffffffffffffffff169060200190929190505050611634565b604051808215151515815260200191505060405180910390f35b61053b6004803603602081101561050f57600080fd5b81019080803573ffffffffffffffffffffffffffffffffffffffff16906020019092919050505061168d565b005b61054561189a565b6040518082600581111561055557fe5b60ff16815260200191505060405180910390f35b6003818154811061057657fe5b9060005260206000209060020201600091509050806000018054600181600116156101000203166002900480601f0160208091040260200160405190810160405280929190818152602001828054600181600116156101000203166002900480156106225780601f106105f757610100808354040283529160200191610622565b820191906000526020600020905b81548152906001019060200180831161060557829003601f168201915b5050505050908060010154905082565b600380600581111561064057fe5b600260009054906101000a900460ff16600581111561065b57fe5b146106b1576040517f08c379a000000000000000000000000000000000000000000000000000000000815260040180806020018281038252602c815260200180611caa602c913960400191505060405180910390fd5b6106ba33611634565b61070f576040517f08c379a0000000000000000000000000000000000000000000000000000000008152600401808060200182810382526030815260200180611c546030913960400191505060405180910390fd5b336107198161197a565b1561076f576040517f08c379a0000000000000000000000000000000000000000000000000000000008152600401808060200182810382526023815260200180611cd66023913960400191505060405180910390fd5b6003838154811061077c57fe5b9060005260206000209060020201600101600081548092919060010191905055506001600460003373ffffffffffffffffffffffffffffffffffffffff1673ffffffffffffffffffffffffffffffffffffffff16815260200190815260200160002060000160016101000a81548160ff02191690831515021790555082600460003373ffffffffffffffffffffffffffffffffffffffff1673ffffffffffffffffffffffffffffffffffffffff168152602001908152602001600020600101819055507f4d99b957a2bc29a30ebd96a7be8e68fe50a3c701db28a91436490b7d53870ca43384604051808373ffffffffffffffffffffffffffffffffffffffff1673ffffffffffffffffffffffffffffffffffffffff1681526020018281526020019250505060405180910390a1505050565b60018060058111156108bd57fe5b600260009054906101000a900460ff1660058111156108d857fe5b1461092e576040517f08c379a000000000000000000000000000000000000000000000000000000000815260040180806020018281038252602c815260200180611caa602c913960400191505060405180910390fd5b61093733611634565b61098c576040517f08c379a0000000000000000000000000000000000000000000000000000000008152600401808060200182810382526030815260200180611c546030913960400191505060405180910390fd5b610994611b94565b8281600001819052506000816020018181525050600381908060018154018082558091505060019003906000526020600020906002020160009091909190915060008201518160000190805190602001906109f0929190611bae565b506020820151816001015550507f92e393e9b54e2f801d3ea4beb0c5e71a21cc34a5d34b77d0fb8a3aa1650dc18f6003805490506040518082815260200191505060405180910390a1505050565b610a466119d3565b73ffffffffffffffffffffffffffffffffffffffff166000809054906101000a900473ffffffffffffffffffffffffffffffffffffffff1673ffffffffffffffffffffffffffffffffffffffff1614610b07576040517f08c379a00000000000000000000000000000000000000000000000000000000081526004018080602001828103825260208152602001807f4f776e61626c653a2063616c6c6572206973206e6f7420746865206f776e657281525060200191505060405180910390fd5b6000806005811115610b1557fe5b600260009054906101000a900460ff166005811115610b3057fe5b14610b86576040517f08c379a000000000000000000000000000000000000000000000000000000000815260040180806020018281038252602c815260200180611caa602c913960400191505060405180910390fd5b6001600460008473ffffffffffffffffffffffffffffffffffffffff1673ffffffffffffffffffffffffffffffffffffffff16815260200190815260200160002060000160006101000a81548160ff0219169083151502179055506005829080600181540180825580915050600190039060005260206000200160009091909190916101000a81548173ffffffffffffffffffffffffffffffffffffffff021916908373ffffffffffffffffffffffffffffffffffffffff1602179055507fb6be2187d059cc2a55fe29e0e503b566e1e0f8c8780096e185429350acffd3dd82604051808273ffffffffffffffffffffffffffffffffffffffff1673ffffffffffffffffffffffffffffffffffffffff16815260200191505060405180910390a15050565b6000610cb633611634565b610d0b576040517f08c379a0000000000000000000000000000000000000000000000000000000008152600401808060200182810382526030815260200180611c546030913960400191505060405180910390fd5b81610d158161197a565b610d87576040517f08c379a000000000000000000000000000000000000000000000000000000000815260040180806020018281038252601c8152602001807f5573657220686173206e6f2076616c69646174656420766f746520210000000081525060200191505060405180910390fd5b600460008473ffffffffffffffffffffffffffffffffffffffff1673ffffffffffffffffffffffffffffffffffffffff16815260200190815260200160002060010154915050919050565b610dda6119d3565b73ffffffffffffffffffffffffffffffffffffffff166000809054906101000a900473ffffffffffffffffffffffffffffffffffffffff1673ffffffffffffffffffffffffffffffffffffffff1614610e9b576040517f08c379a00000000000000000000000000000000000000000000000000000000081526004018080602001828103825260208152602001807f4f776e61626c653a2063616c6c6572206973206e6f7420746865206f776e657281525060200191505060405180910390fd5b600073ffffffffffffffffffffffffffffffffffffffff166000809054906101000a900473ffffffffffffffffffffffffffffffffffffffff1673ffffffffffffffffffffffffffffffffffffffff167f8be0079c531659141344cd1fd0a4f28419497f9722a3daafe3b4186f6b6457e060405160405180910390a360008060006101000a81548173ffffffffffffffffffffffffffffffffffffffff021916908373ffffffffffffffffffffffffffffffffffffffff160217905550565b610f626119d3565b73ffffffffffffffffffffffffffffffffffffffff166000809054906101000a900473ffffffffffffffffffffffffffffffffffffffff1673ffffffffffffffffffffffffffffffffffffffff1614611023576040517f08c379a00000000000000000000000000000000000000000000000000000000081526004018080602001828103825260208152602001807f4f776e61626c653a2063616c6c6572206973206e6f7420746865206f776e657281525060200191505060405180910390fd5b6000600260009054906101000a900460ff1690506000600581111561104457fe5b600260009054906101000a900460ff16600581111561105f57fe5b14156110ba576001600260006101000a81548160ff0219169083600581111561108457fe5b02179055507f344c25562921d075a298d34b6dd1fd00d36ff293974539dfd4a8c625d9f0064c60405160405180910390a16112cd565b600160058111156110c757fe5b600260009054906101000a900460ff1660058111156110e257fe5b141561113c5760028060006101000a81548160ff0219169083600581111561110657fe5b02179055507f240cb87b2e4df4c318e72bd714d45a9cad60249e883ff56b1fffd83a4595a8fa60405160405180910390a16112cc565b6002600581111561114957fe5b600260009054906101000a900460ff16600581111561116457fe5b14156111bf576003600260006101000a81548160ff0219169083600581111561118957fe5b02179055507f1b8e19a458c1bcd88553332c518cc5c4e2d5793e712ee766d4f1c14f672ef1f560405160405180910390a16112cb565b600360058111156111cc57fe5b600260009054906101000a900460ff1660058111156111e757fe5b1415611242576004600260006101000a81548160ff0219169083600581111561120c57fe5b02179055507fc379d349a6301baf50fb2f98d829f4ae10b1cdb7c66f4e4d8117302df7b8cd4c60405160405180910390a16112ca565b6004600581111561124f57fe5b600260009054906101000a900460ff16600581111561126a57fe5b14156112c9576112786119db565b6005600260006101000a81548160ff0219169083600581111561129757fe5b02179055507f0e5e95ff8725ab3e7a4b6b59998a4c344c2aa8d1485f5e60cb7f337768e6134760405160405180910390a15b5b5b5b5b600260009054906101000a900460ff1660058111156112e857fe5b8160058111156112f457fe5b14611364577f0a97a4ee45751e2abf3e4fc8946939630b11b371ea8ae39ccdc3056e98f5cc3f81600260009054906101000a900460ff166040518083600581111561133b57fe5b60ff16815260200182600581111561134f57fe5b60ff1681526020019250505060405180910390a15b50565b60008060009054906101000a900473ffffffffffffffffffffffffffffffffffffffff16905090565b606061139a6119d3565b73ffffffffffffffffffffffffffffffffffffffff166000809054906101000a900473ffffffffffffffffffffffffffffffffffffffff1673ffffffffffffffffffffffffffffffffffffffff161461145b576040517f08c379a00000000000000000000000000000000000000000000000000000000081526004018080602001828103825260208152602001807f4f776e61626c653a2063616c6c6572206973206e6f7420746865206f776e657281525060200191505060405180910390fd5b60058054806020026020016040519081016040528092919081815260200182805480156114dd57602002820191906000526020600020905b8160009054906101000a900473ffffffffffffffffffffffffffffffffffffffff1673ffffffffffffffffffffffffffffffffffffffff1681526020019060010190808311611493575b5050505050905090565b606060058060058111156114f757fe5b600260009054906101000a900460ff16600581111561151257fe5b14611568576040517f08c379a000000000000000000000000000000000000000000000000000000000815260040180806020018281038252602c815260200180611caa602c913960400191505060405180910390fd5b60036001548154811061157757fe5b90600052602060002090600202016000018054600181600116156101000203166002900480601f01602080910402602001604051908101604052809291908181526020018280546001816001161561010002031660029004801561161c5780601f106115f15761010080835404028352916020019161161c565b820191906000526020600020905b8154815290600101906020018083116115ff57829003601f168201915b505050505091505090565b6000600380549050905090565b6000600460008373ffffffffffffffffffffffffffffffffffffffff1673ffffffffffffffffffffffffffffffffffffffff16815260200190815260200160002060000160009054906101000a900460ff169050919050565b6116956119d3565b73ffffffffffffffffffffffffffffffffffffffff166000809054906101000a900473ffffffffffffffffffffffffffffffffffffffff1673ffffffffffffffffffffffffffffffffffffffff1614611756576040517f08c379a00000000000000000000000000000000000000000000000000000000081526004018080602001828103825260208152602001807f4f776e61626c653a2063616c6c6572206973206e6f7420746865206f776e657281525060200191505060405180910390fd5b600073ffffffffffffffffffffffffffffffffffffffff168173ffffffffffffffffffffffffffffffffffffffff1614156117dc576040517f08c379a0000000000000000000000000000000000000000000000000000000008152600401808060200182810382526026815260200180611c846026913960400191505060405180910390fd5b8073ffffffffffffffffffffffffffffffffffffffff166000809054906101000a900473ffffffffffffffffffffffffffffffffffffffff1673ffffffffffffffffffffffffffffffffffffffff167f8be0079c531659141344cd1fd0a4f28419497f9722a3daafe3b4186f6b6457e060405160405180910390a3806000806101000a81548173ffffffffffffffffffffffffffffffffffffffff021916908373ffffffffffffffffffffffffffffffffffffffff16021790555050565b60006118a46119d3565b73ffffffffffffffffffffffffffffffffffffffff166000809054906101000a900473ffffffffffffffffffffffffffffffffffffffff1673ffffffffffffffffffffffffffffffffffffffff1614611965576040517f08c379a00000000000000000000000000000000000000000000000000000000081526004018080602001828103825260208152602001807f4f776e61626c653a2063616c6c6572206973206e6f7420746865206f776e657281525060200191505060405180910390fd5b600260009054906101000a900460ff16905090565b6000600460008373ffffffffffffffffffffffffffffffffffffffff1673ffffffffffffffffffffffffffffffffffffffff16815260200190815260200160002060000160019054906101000a900460ff169050919050565b600033905090565b6119e36119d3565b73ffffffffffffffffffffffffffffffffffffffff166000809054906101000a900473ffffffffffffffffffffffffffffffffffffffff1673ffffffffffffffffffffffffffffffffffffffff1614611aa4576040517f08c379a00000000000000000000000000000000000000000000000000000000081526004018080602001828103825260208152602001807f4f776e61626c653a2063616c6c6572206973206e6f7420746865206f776e657281525060200191505060405180910390fd5b6004806005811115611ab257fe5b600260009054906101000a900460ff166005811115611acd57fe5b14611b23576040517f08c379a000000000000000000000000000000000000000000000000000000000815260040180806020018281038252602c815260200180611caa602c913960400191505060405180910390fd5b600080905060008090505b600380549050811015611b8f578160038281548110611b4957fe5b9060005260206000209060020201600101541115611b82578060018190555060038181548110611b7557fe5b9060005260206000209050505b8080600101915050611b2e565b505050565b604051806040016040528060608152602001600081525090565b828054600181600116156101000203166002900490600052602060002090601f016020900481019282601f10611bef57805160ff1916838001178555611c1d565b82800160010185558215611c1d579182015b82811115611c1c578251825591602001919060010190611c01565b5b509050611c2a9190611c2e565b5090565b611c5091905b80821115611c4c576000816000905550600101611c34565b5090565b9056fe4f6e6c79207265676973746572656420766f746572732063616e2065786563757465207468697320616374696f6e20214f776e61626c653a206e6577206f776e657220697320746865207a65726f2061646472657373416374696f6e206973206e6f7420616c6c6f77656420696e207468652063757272656e742070686173652021557365722068617320616c726561647920612076616c69646174656420766f74652021a26469706673582212200c3e564da369b5275bdd365b7349cefae8715d1ad422f525af9a2e3870deafe564736f6c634300060b0033",
  "immutableReferences": {},
  "source": "// SPDX-License-Identifier: GPL-3.0\n\npragma solidity 0.6.11;\n\nimport \"../client/node_modules/@openzeppelin/contracts/access/Ownable.sol\";\n\ncontract Voting is Ownable {\n    struct Voter {\n        bool isRegistered;\n        bool hasVoted;\n        uint256 votedProposalId;\n    }\n\n    struct Proposal {\n        string description;\n        uint256 voteCount;\n    }\n\n    enum WorkflowStatus {\n        RegisteringVoters,\n        ProposalsRegistrationStarted,\n        ProposalsRegistrationEnded,\n        VotingSessionStarted,\n        VotingSessionEnded,\n        VotesTallied\n    }\n\n    uint256 private winningProposalId;\n    WorkflowStatus private currentWorkflowStatus =\n        WorkflowStatus.RegisteringVoters;\n    Proposal[] public proposals;\n    mapping(address => Voter) private voterList;\n    address[] private voterListAddresses;\n\n    event VoterRegistered(address voterAddress);\n    event ProposalsRegistrationStarted();\n    event ProposalsRegistrationEnded();\n    event ProposalRegistered(uint256 proposalId);\n    event VotingSessionStarted();\n    event VotingSessionEnded();\n    event Voted(address voter, uint256 proposalId);\n    event VotesTallied();\n    event WorkflowStatusChange(\n        WorkflowStatus previousStatus,\n        WorkflowStatus newStatus\n    );\n\n    modifier onlyValidWorkflowStatus(WorkflowStatus _validWorkflowStatus) {\n        require(\n            currentWorkflowStatus == _validWorkflowStatus,\n            \"Action is not allowed in the current phase !\"\n        );\n        _;\n    }\n\n    modifier onlyRegisteredVoters() {\n        require(\n            isVoterRegistered(msg.sender),\n            \"Only registered voters can execute this action !\"\n        );\n        _;\n    }\n\n    modifier onlyIfVoted(address _voterAddress) {\n        require(hasVoted(_voterAddress), \"User has no validated vote !\");\n        _;\n    }\n\n    modifier onlyIfNotVoted(address _voterAddress) {\n        require(\n            !hasVoted(_voterAddress),\n            \"User has already a validated vote !\"\n        );\n        _;\n    }\n\n    function nextWorkflowStatus() public onlyOwner {\n        WorkflowStatus _previousStatus = currentWorkflowStatus;\n        if (currentWorkflowStatus == WorkflowStatus.RegisteringVoters) {\n            currentWorkflowStatus = WorkflowStatus.ProposalsRegistrationStarted;\n            emit ProposalsRegistrationStarted();\n        } else if (\n            currentWorkflowStatus == WorkflowStatus.ProposalsRegistrationStarted\n        ) {\n            currentWorkflowStatus = WorkflowStatus.ProposalsRegistrationEnded;\n            emit ProposalsRegistrationEnded();\n        } else if (\n            currentWorkflowStatus == WorkflowStatus.ProposalsRegistrationEnded\n        ) {\n            currentWorkflowStatus = WorkflowStatus.VotingSessionStarted;\n            emit VotingSessionStarted();\n        } else if (\n            currentWorkflowStatus == WorkflowStatus.VotingSessionStarted\n        ) {\n            currentWorkflowStatus = WorkflowStatus.VotingSessionEnded;\n            emit VotingSessionEnded();\n        } else if (currentWorkflowStatus == WorkflowStatus.VotingSessionEnded) {\n            tallyVotes();\n            currentWorkflowStatus = WorkflowStatus.VotesTallied;\n            emit VotesTallied();\n        }\n        if (_previousStatus != currentWorkflowStatus) {\n            emit WorkflowStatusChange(_previousStatus, currentWorkflowStatus);\n        }\n    }\n\n    function getWorkflowStatus()\n        public\n        view\n        onlyOwner\n        returns (WorkflowStatus)\n    {\n        return currentWorkflowStatus;\n    }\n\n    function registerVoter(address _address)\n        public\n        onlyOwner\n        onlyValidWorkflowStatus(WorkflowStatus.RegisteringVoters)\n    {\n        voterList[_address].isRegistered = true;\n        voterListAddresses.push(_address);\n        emit VoterRegistered(_address);\n    }\n\n    function getVoterListAddresses()\n        public\n        view\n        onlyOwner\n        returns (address[] memory)\n    {\n        return voterListAddresses;\n    }\n\n    function getProposalCount() public view returns (uint256) {\n        return proposals.length;\n    }\n\n    function isVoterRegistered(address _voterAddress)\n        public\n        view\n        returns (bool)\n    {\n        return voterList[_voterAddress].isRegistered;\n    }\n\n    function registerProposal(string memory _description)\n        public\n        onlyValidWorkflowStatus(WorkflowStatus.ProposalsRegistrationStarted)\n        onlyRegisteredVoters\n    {\n        Proposal memory proposal;\n        proposal.description = _description;\n        proposal.voteCount = 0;\n        proposals.push(proposal);\n        emit ProposalRegistered(proposals.length);\n    }\n\n    function voteForProposal(uint256 _proposalId)\n        public\n        onlyValidWorkflowStatus(WorkflowStatus.VotingSessionStarted)\n        onlyRegisteredVoters\n        onlyIfNotVoted(msg.sender)\n    {\n        proposals[_proposalId].voteCount++;\n        voterList[msg.sender].hasVoted = true;\n        voterList[msg.sender].votedProposalId = _proposalId;\n        emit Voted(msg.sender, _proposalId);\n    }\n\n    function hasVoted(address _address) private view returns (bool) {\n        return voterList[_address].hasVoted;\n    }\n\n    function getVoteFromVoter(address _voterAddress)\n        public\n        view\n        onlyRegisteredVoters\n        onlyIfVoted(_voterAddress)\n        returns (uint256)\n    {\n        return voterList[_voterAddress].votedProposalId;\n    }\n\n    function tallyVotes()\n        private\n        onlyOwner\n        onlyValidWorkflowStatus(WorkflowStatus.VotingSessionEnded)\n    {\n        //TODO: Manage equality\n        uint256 maxVoteCount = 0;\n        for (uint256 i = 0; i < proposals.length; i++) {\n            if (proposals[i].voteCount > maxVoteCount) {\n                winningProposalId = i;\n                proposals[i].voteCount;\n            }\n        }\n    }\n\n    function getWinningProposal()\n        public\n        view\n        onlyValidWorkflowStatus(WorkflowStatus.VotesTallied)\n        returns (string memory)\n    {\n        return proposals[winningProposalId].description;\n    }\n}\n",
  "sourcePath": "/Users/davidrochus/Dev/workspace/Alyra2/Alyra/Challenges/Defi2/contracts/Voting.sol",
  "compiler": {
    "name": "solc",
    "version": "0.6.11+commit.5ef660b1.Emscripten.clang"
  },
  "schemaVersion": "3.4.0",
  "updatedAt": "2021-05-16T08:50:24.453Z",
  "networkType": "ethereum",
  "devdoc": {
    "kind": "dev",
    "methods": {
      "owner()": {
        "details": "Returns the address of the current owner."
      },
      "renounceOwnership()": {
        "details": "Leaves the contract without owner. It will not be possible to call `onlyOwner` functions anymore. Can only be called by the current owner. NOTE: Renouncing ownership will leave the contract without an owner, thereby removing any functionality that is only available to the owner."
      },
      "transferOwnership(address)": {
        "details": "Transfers ownership of the contract to a new account (`newOwner`). Can only be called by the current owner."
      }
    },
    "version": 1
  },
  "userdoc": {
    "kind": "user",
    "methods": {},
    "version": 1
  }
}