{
  "contractName": "MyDeFiProject",
  "abi": [
    {
      "inputs": [
        {
          "internalType": "address",
          "name": "daiAddress",
          "type": "address"
        }
      ],
      "stateMutability": "nonpayable",
      "type": "constructor"
    },
    {
      "inputs": [
        {
          "internalType": "address",
          "name": "recipient",
          "type": "address"
        },
        {
          "internalType": "uint256",
          "name": "amount",
          "type": "uint256"
        }
      ],
      "name": "foo",
      "outputs": [],
      "stateMutability": "nonpayable",
      "type": "function"
    }
  ],
  "bytecode": "0x608060405234801561001057600080fd5b506040516102193803806102198339818101604052602081101561003357600080fd5b8101908080519060200190929190505050806000806101000a81548173ffffffffffffffffffffffffffffffffffffffff021916908373ffffffffffffffffffffffffffffffffffffffff16021790555050610185806100946000396000f3fe608060405234801561001057600080fd5b506004361061002b5760003560e01c8063bd0d639f14610030575b600080fd5b61007c6004803603604081101561004657600080fd5b81019080803573ffffffffffffffffffffffffffffffffffffffff1690602001909291908035906020019092919050505061007e565b005b60008054906101000a900473ffffffffffffffffffffffffffffffffffffffff1673ffffffffffffffffffffffffffffffffffffffff1663a9059cbb83836040518363ffffffff1660e01b8152600401808373ffffffffffffffffffffffffffffffffffffffff16815260200182815260200192505050602060405180830381600087803b15801561010f57600080fd5b505af1158015610123573d6000803e3d6000fd5b505050506040513d602081101561013957600080fd5b810190808051906020019092919050505050505056fea2646970667358221220309e6f607daa7c4f020a33091e00d4443e788de4b916f73f3efe534b496b0b2964736f6c634300060c0033",
  "immutableReferences": {},
  "source": "// SPDX-License-Identifier: GPL-3.0\npragma solidity 0.6.12;\nimport \"@openzeppelin/contracts/token/ERC20/IERC20.sol\";\n\ncontract MyDeFiProject {\n    IERC20 dai;\n\n    constructor(address daiAddress) public {\n        // injecter l'address du token Dai à utiliser\n        dai = IERC20(daiAddress);\n    }\n\n    // fonction qui permet d'effectuer un transfer de dai vers le recipient\n    function foo(address recipient, uint256 amount) external {\n        // quelques instructions\n        dai.transfer(recipient, amount);\n    }\n}\n",
  "sourcePath": "/Users/davidrochus/Dev/workspace/Alyra2/Alyra/Exercises/DeFi/defi-dai-ganache/contracts/MyDeFiProject.sol",
  "compiler": {
    "name": "solc",
    "version": "0.6.12+commit.27d51765.Emscripten.clang"
  },
  "schemaVersion": "3.4.1",
  "updatedAt": "2021-06-01T06:10:08.049Z",
  "networkType": "ethereum",
  "devdoc": {
    "kind": "dev",
    "methods": {},
    "version": 1
  },
  "userdoc": {
    "kind": "user",
    "methods": {},
    "version": 1
  }
}